:020000040000FA
:10000000585D0020A1200000DD5F00007520000089
:10001000752000007520000075200000752000008C
:100020000000000000000000000000007D1D000036
:100030007520000000000000752000007520000001
:10004000D91D0000D91D0000D91D0000D91D0000D8
:10005000D91D0000D91D0000D91D0000D91D0000C8
:10006000D91D0000D91D0000D91D0000D91D0000B8
:10007000D91D0000D91D0000D91D0000D91D0000A8
:10008000D91D0000D91D0000D91D0000D91D000098
:10009000D91D0000D91D0000D91D0000D91D000088
:1000A000D91D0000D91D0000D91D0000D91D000078
:1000B000D91D0000D91D0000D91D0000D91D000068
:1000C000D91D0000D91D0000D91D0000D91D000058
:1000D000D91D0000D91D0000D91D0000D91D000048
:1000E000D91D0000D91D0000D91D0000D91D000038
:1000F000D91D0000D91D0000D91D0000D91D000028
:10010000D91D0000D91D0000D91D0000D91D000017
:10011000D91D0000D91D0000D91D0000D91D000007
:10012000D91D0000D91D0000D91D0000D91D0000F7
:10013000D91D0000D91D0000D91D0000D91D0000E7
:10014000D91D0000D91D0000D91D0000D91D0000D7
:10015000D91D000053B94AB9002908BF00281CBFA7
:100160004FF0FF314FF0FF3000F00CB8ADF1080C4C
:100170006DE904CE00F008F8DDF804E0DDE90223C3
:1001800004B07047704700BF2DE9F04786468C46A3
:100190000846089E154674461946002B40F0C1805B
:1001A0008542B2FA82F245D94AB1C2F1200300FA7F
:1001B00002FC954094402EFA03F343EA0C0C4FEAFC
:1001C000154EA8B2230CBCFBFEF80EFB18CC08FBA6
:1001D00000F943EA0C43994528D9EB1808F1FF3799
:1001E00004D2994502D9A8F102072B44A3EB0903D5
:1001F000A4B2B3FBFEFC0EFB1C330CFB00F044EA84
:100200000344A04214D92C190CF1FF3304D2A042AC
:1002100002D9ACF102032C44241A43EA07401EB170
:10022000D440002334607360BDE8F0874746DDE7C3
:100230006346F1E792BB431B01214FEA154EAFB273
:10024000200CB3FBFEFC0EFB1C330CFB07F840EA52
:100250000343984561D9EB180CF1FF3004D298455F
:1002600002D9ACF102002B44A3EB0803A4B2B3FB08
:10027000FEFC0EFB1C330CFB07F744EA0344A742C9
:100280004DD92C190CF1FF3304D2A74202D9ACF19D
:1002900002032C44E41B43EA0040C0E7C2F1200300
:1002A0009540944020FA03F12EFA03F34FEA154EDD
:1002B0009040AFB20343B1FBFEFC0EFB1C10190CC7
:1002C0000CFB07F841EA0041884522D969180CF176
:1002D000FF3004D2884502D9ACF102002944A1EBD9
:1002E00008019BB2B1FBFEFC0EFB1C110CFB07F7D7
:1002F00043EA01439F420ED9EB180CF1FF3104D2BF
:100300009F4202D9ACF102012B44DB1B41EA0041C0
:1003100093E76046E3E76146F7E76046A4E7634694
:10032000B8E7834206D916B9002108467CE7C6E93A
:1003300000E0F9E7B3FA83F78FB9834201D372453E
:1003400008D8BEEB020460EB030301209C461EB9F3
:10035000002169E73846FAE7C6E9004CF8E7C7F13B
:10036000200CBB400EFA07F522FA0CF42EFA0CF121
:10037000BA401C4320FA0CF3B8404FEA1449014339
:100380001FFA84FEB3FBF9F809FB18300B0C08FBCD
:100390000EFA43EA00439A4540D9E31808F1FF30CA
:1003A00004D29A4502D9A8F102002344A3EB0A0320
:1003B00089B2B3FBF9F809FB183308FB0EFE41EADA
:1003C00003418E452CD9611808F1FF3304D28E45C4
:1003D00002D9A8F10203214443EA0040A1EB0E0137
:1003E000A0FB02984145CE46434602D306D14D4577
:1003F00004D20138B9EB020E68EB0403002EA7D03B
:10040000B5EB0E0261EB030101FA0CFC22FA07F3D3
:10041000F9404CEA0303C6E9003199E74046C5E7D5
:100420004346D9E7F0B5394B394A4921C2F800367D
:10043000C2F80436C2F80836C2F80C36C2F81036D4
:10044000C2F81436C2F81836C2F81C3602F58052CB
:10045000C2F800362F48C2F8043685B0C2F8083614
:10046000C2F80C36C2F81036C2F81436C2F8183684
:10047000C2F81C3605F027FD00F06AF801A800F06C
:10048000D5FC254B1B68834204D04521234805F049
:100490001AFDFEE7039A4921214805F014FD492180
:1004A000204805F010FD4FF44041002003F0A2F970
:1004B000044620B145211C4805F005FDFEE76946CC
:1004C0009DF8080000F034F8009B039D1D44019B3B
:1004D0001E8903F077F9AF1900F07EFF00F060FF8E
:1004E00001F020FE84F30B8884F30A88AB5983F370
:1004F000088884F31488BFF36F8FBFF36F8F7B6816
:1005000098474521094805F0DEFCFEE73546526E66
:100510000080015076890000E00100208F890000F2
:10052000B2890000E1890000068A0000398A0000D3
:10053000024608B538B105480023452105F0C3FC43
:100540006FF0150008BD0860FCE700BF5C8A000082
:100550004FF4C051014803F0B1BB00BF4010002070
:100560002DE9F04FDFF8C0A1F9B038A8DDE98478B3
:1005700016461C46DDF818B2DAF8005007F06CFB9E
:10058000002138A803F0AEFC3FB1B8F1000F04DD44
:100590004246394638A807F063FB4FF000087389DC
:1005A00037891F44F3681F44474546D80DA938A82A
:1005B00007F09AFBBBF1000F04D0202258460DA98A
:1005C00005F071FD00232246009331464FF6FF737C
:1005D00007A805F011F9804660BB20460C9E00F08C
:1005E000AFF9864226D84FF0FF37DFF840910DF182
:1005F000160305AA06A907A805F04CF9002819DB7F
:1006000040F08A80BDF81660102E2ED1BDF814601F
:10061000202E0FD133462046069938AA05F061FCFA
:1006200040B9324638A90DA805F080F9404B1B6847
:10063000834217D0DAF8005071E0839BA7EB0809DA
:10064000994528BF994641464B462046829A05F077
:1006500048FC0028EED14A46829938A807F000FBF2
:10066000C844A1E74FF00108C1E7012E35D1BDF81C
:100670001430202BDED82046069938AA05F031FC2C
:1006800007460028D6D19DF814B0BBF1200F02D93F
:100690004FF0FF37ABE7D9F80030264E0393039BAA
:1006A0009F42F5DA1DA807F0D7FA00211DA803F034
:1006B00019FC72681DA8126856F8081B07F0D0FADA
:1006C00015A91DA807F010FB5A4638A915A805F072
:1006D000C3FC00288BD00137E1E7202E87D17B1C9B
:1006E00085D0D9F80030BB42D2DDBDF81430B3F567
:1006F000807F9FD12046069938AA05F0F2FB00289A
:1007000098D1FFB23146BDF81430009738AA0DA831
:1007100000F012F80546BBE7B8F1000F8AD0284672
:1007200079B0BDE8F08F00BF0400002068850000AC
:10073000E00100206C8500002DE9F04FDFF8B4A146
:10074000ADF54D7D074629A89DF858B389469046DA
:100750001E46DAF8005007F03CFA674B8CAA53F8B3
:100760003B4003EBCB035B6804941B6804A81C4468
:100770002146302306F054F870BB049B8C9A134436
:100780009C4229D121462BAA04A806F05DF818BB8B
:100790000DF1B80B5A46214604A806F055F803900F
:1007A000D0B92BA806F047F9049A2A90944213D1A5
:1007B000039BCDF804B01A4600932BA929A807F093
:1007C000C5F948B929A803F01FFB28B92BA806F0E2
:1007D00032F986422A900AD029A807F004FA29A8FB
:1007E00007F001FA28460DF54D7DBDE8F08FB6F50E
:1007F000807FDAF800507BD1B9F1200F78D14146E3
:100800008CAA29A803F026FB0446002870D19DF885
:100810002F33BC2B6CD1DF2605900DF5A8790EA8DF
:1008200007F01AFA00210EA803F05CFB20220DF25B
:100830000F310EA807F014FA042205A90EA807F03C
:100840000FFA06A90EA807F04FFA202EB046A8BF4F
:100850004FF020089DF8173048460133424606A95C
:10086000A6EB08068DF8173005F01DFC002EC144DC
:10087000D5DC54AB184600219C468CAA067812F8A9
:1008800001EB013186EA0E06DF2900F8016BF5D194
:100890001A7802F07F021A7013F8016B46BB01341C
:1008A000BE2CF9D19CF8BE30012B21D10EA807F047
:1008B000D3F931460EA803F015FB08220F490EA804
:1008C00007F0CEF9394620220EA807F0C9F92022F8
:1008D0000DF20F210EA807F0C3F906A90EA807F024
:1008E00003FA20220DF20F3106A805F01FF8054685
:1008F00075E700BF040000206C850000828A0000BC
:100900001FB502200C4601F055F950B9206810239C
:1009100081686A46103905F0E4FA28B1206805F0CC
:10092000DFFA4FF0FF3006E010226846034905F079
:1009300093FB0028F2D104B010BD00BF668900000F
:1009400013B5044605F006F86A460146204604F051
:100950003AFF30B10448452105F0B5FA002002B055
:1009600010BD0098FBE700BF8A8A00002DE9F04126
:10097000364B88B0064600200D461C6804F018FF70
:1009800006A9C0B201F016F9002858D1294604F092
:100990000FFF2C2407A9C0B204FB056401F00AF97B
:1009A000002833D02C276F4306EB0708D8F8101027
:1009B000069B11F0100138D14FF480720192244A45
:1009C00008460092CDE9031122460291FFF7C8FDC7
:1009D0000446204BF25906989A420CD1D8F80C20C4
:1009E000B8F808309B1806D28268934203D21A4B9B
:1009F0001B68A34220D035B38268002105F09BFA22
:100A0000164A4521164805F05EFA13E0079805F0EE
:100A1000ADFA0746079805F063FA631EE21C13F867
:100A2000011FB942BED19342F9D11DB1304606999A
:100A300005F082F80B4B1C68069805F051FA204629
:100A400008B0BDE8F081084ADBE700BF04000020E1
:100A5000402800203DB8F396E0010020CD8A000038
:100A6000D78A000000000020C58A00007FB50D462F
:100A7000002104462846CDE9021105F01CF828B3F0
:100A8000194E2368B34203D1204603AA04F0A8FFFD
:100A9000E36AB34204D10121204602AA04F0A0FF78
:100AA000DDE90232934288BF0393039BAB60039A54
:100AB0002946204600F07CFB0C4B1A68002A03DD17
:100AC00057210B4805F0FFF904B070BD01A9FFF7ED
:100AD00017FF019805F1080104F047FFAB68019882
:100AE000039305F0FDF9E2E73DB8F396440E0020CC
:100AF000FF8A00002DE9F84F884691469A46002665
:100B0000DFF88CB0234D244C0B9B9E4201D3002078
:100B10000FE00B9B40469F1BB7F5806F28BF4FF43B
:100B200080671B4A3B4606EB0A0105F0DAF910B173
:100B30000120BDE8F88F0A993B465A46484671188D
:100B400005F0E4F90028F3D1144BC5F800463E4403
:100B5000C5F80446C5F80846C5F80C46C5F8104661
:100B6000C5F81446C5F81846C5F81C46C3F8004633
:100B7000C3F80446C3F80846C3F80C46C3F8104649
:100B8000C3F81446C3F81846C3F81C46BCE700BFB8
:100B9000E4090020008001503546526E009001505B
:100BA000F0B50E460021974B87B04362964B044642
:100BB0000365084604F0FCFD04F12001C0B200F01A
:100BC000F9FF0121002004F0F3FD04F14C01C0B253
:100BD00000F0F0FF204604F044FF054668B900220B
:100BE0002046114604F0E6FE054600B300225721D8
:100BF000864805F068F901239FE080225721844848
:100C000005F061F901239D4284F85830E7D194F84A
:100C10005830042B8DF80F3000F29280012B00F237
:100C2000968000F0A980FF2384F85830A4E0204685
:100C300000F0D6F90028DED002A804F033FF014608
:100C4000204604F0CEFF18B12A4657217148D0E75C
:100C500002A804F030FF80F0010102AA2046C9B2C8
:100C600004F0A8FE02460028C0D102A804F023FF29
:100C7000054660BB204602A9FFF7F8FE9DF80F303D
:100C800084F85830033B012B06D8284604F0F7FFC0
:100C900010B1FF2384F858309DF80F30023B022B2F
:100CA0000BD8002004F0D9FF38B1FF2384F8583066
:100CB0004521594805F007F9FEE794F85830FF2B15
:100CC000F6D00021204602AA04F074FE93E79DF8B6
:100CD0000F30012B26D1514B0192E26AE06C9A420F
:100CE0000BD10423A18E0DEB0302194405F0F9F892
:100CF00018B1052584F8585089E7002002F00EFE4F
:100D0000831E022B0546F5D801212046FFF72EFE53
:100D1000434B1B689842EDD0424B1B689842E8D188
:100D20000125E7E701212046FFF720FE3C4B1B6829
:100D3000984214BF05239DF80F3084F8583066E7B9
:100D4000052B7FF470AF002004F099FF11E02046DE
:100D500002A9FFF78BFE94F85830DA1E012A14D846
:100D6000002004F08CFF00287FF45DAF002004F029
:100D700074FF00287FF457AF94F85830FF2B07D149
:100D80004521254805F09FF8FEE7022BF4D1EDE759
:100D90000021012B244D019113D0204602AA04F01A
:100DA00009FE70B12D681022002102A805F086F915
:100DB000E06C05F095F8206A05F092F8284607B037
:100DC000F0BD00212046FFF7D1FD154F3B6898424A
:100DD000E8D12B689842E5D0124B1B689842E1D0CD
:100DE000019B01330193019B012B00D0FEE7206A98
:100DF00004F0E7FC3071236A5B6834603D68B360DF
:100E0000D1E700BFE4050020E4010020708B000062
:100E10002E8B00009C8B0000C68B00003DB8F39623
:100E2000E0010020000000200400002038B5064D3D
:100E3000044660220021284605F040F92146284654
:100E4000FFF7AEFE38BD00BFE40D00202DE9F341F1
:100E500006460C4617461D460BB9002628E01846E4
:100E600004F029FE0028F8D16946FFF749FD0098F3
:100E700038B90124009805F033F8204602B0BDE8E7
:100E8000F08101A904F071FD0028F2D1009805F06D
:100E900027F83046019904F010FF736A5E686B7999
:100EA000012B21D1002CD8D12B68834298BF00267A
:100EB0002146002004F07CFC6946C0B200F07AFEB6
:100EC0000028D6D120233A463146009805F009F88B
:100ED00004460028CDD1002DCCD03C680D4BE41A3F
:100EE00018BF4FF0FF34C5E7022BB6D12B68012B9A
:100EF00005D98342B1D8B4FA84F46409ADE7ACD122
:100F0000002CD5D0012CA8D12C79023C18BF01248B
:100F1000A3E700BF3DB8F3962DE9F04F07460C4616
:100F200085B001460020164604F007FD051E50DB83
:100F30003846E46D04F00EFD5FFA84F94FF0000AC4
:100F40004FF0010B4FF0FF346B1E09FB03089DB9F6
:100F5000BAF1010F03DD4521204804F0B4FF631C02
:100F600006D07F2C2ADC40F2011301343460B380B8
:100F7000284605B0BDE8F08F6B1E00934146012363
:100F800038460DF10F0204F0ACFF031E019322DB83
:100F9000012238460DF10F0105F05DFB019B40B1C8
:100FA0005B4501D00AF1010A9B46009DA8EB0908A8
:100FB000CDE7B4F1FF3F08BF2C46F5E70223803CA4
:100FC0007371631004F00104013301343360347130
:100FD000CEE70725CCE70125CAE700BFD28B00008A
:100FE00038B5816A426D914208D0531C8B4205D0BE
:100FF0005721134804F067FF002038BD80291CD911
:1010000057211048F6E7446A056D04EBC30405EB6D
:10101000C30564686D68AC4202D057210A48E9E70D
:1010200001339A42EFD1914205D9436A03EBC203DF
:101030005B68A342F1D10120DFE700231C46F0E703
:10104000F58B00002D8C00005C8C000000B589B091
:10105000022004A905F071FB9DF81020012A41D05F
:10106000254B2649032A08BF0B469DF8132049212A
:1010700002929DF81220224801929DF811200092C0
:10108000204A04F020FF052006A905F056FB9DF834
:101090001820012A28D0184B1849032A08BF0B46EC
:1010A0009DF81B20492102929DF81A2014480192B4
:1010B0009DF819200092144A04F005FF9DF81030A5
:1010C000012B13D19DF81230032B0FD19DF818304E
:1010D000012B0BD00D48492104F0F5FE022009B088
:1010E0005DF804FB0A4BC0E7094BD9E709484921E1
:1010F00004F0E9FE0020F2E7888C0000918C0000EB
:10110000A58C0000978C0000E68C0000F68C000097
:101110008C8C0000158D000070B54B6814461E4A7B
:1011200003F0FF23934206460D4686B02FD10B688D
:10113000012B2CD1204604A902F09AFB9DF8102027
:10114000012A26D0154B1649032A08BF0B469DF8E5
:101150001320492102929DF81220124801929DF815
:1011600011200092104A04F0AEFE9DF81030032BBF
:101170000DD12146304604F0DFFC204605F0D0FAC0
:101180002046A96804F007FC204602F051FB06B097
:1011900070BD064BDBE700BF00010004888C000037
:1011A000918C0000A58C0000E68C00008C8C000067
:1011B0002DE9F04F1646054689B00C467448492182
:1011C00004F081FE3146284604F077FD6B6A8246C2
:1011D00020465E6804F06FFCE8B1E86D04F0A8FBFF
:1011E0000023AF6A013F3344834201D2013FFAE753
:1011F000BA4510D35721674804F065FE07FB06F394
:1012000057210AFB0662644804F05DFE0123E37186
:1012100009B0BDE8F08F06A9022000F0CBFC07A9B9
:10122000052000F0C7FC21462846079AFFF774FF07
:101230006379012B4BD15746DFF860B141E022685A
:10124000C2F1010353449F423AD86B6A012A1968DC
:1012500053F8370003EBC70353F8083CA0EB010930
:10126000A3EB0103049311D1079B0393E368022BC3
:1012700008D04146284604F05FFC224641462846F5
:1012800004F090FC2846039904F056FC3246494687
:10129000404604F04FFC049B424641462846CDE9B7
:1012A0000096FFF727FC2146284604F011FC23682E
:1012B0000133236020B1DBF800300133CBF800307C
:1012C000013FDDF81880002FB9D1012323600223EC
:1012D00001276371BA45DDF8189006D2484604F03C
:1012E000FFFD079804F0FCFD92E723689F424DD371
:1012F0006A6AFB0052F83710083B04911168DDF868
:101300001CB00391D1582A6DD0581368A0EB030884
:101310002379012B38D1039B3246C91A48460591DF
:1013200004F008FC059943464A4600912846594670
:101330000196FFF7DFFB2146284604F0C9FB022394
:10134000237118B1154A13680133136032464146C0
:10135000584604F0EFFBDDE9032349469B1A284673
:101360005A46CDE90086FFF7C5FB2146284604F022
:10137000AFFB2368013323600123237130B1074A97
:1013800013680133136001E0022BDFD00137A1E7BE
:101390002C8D0000558D0000848D0000440E00202F
:1013A000BFF36F8F72B600234FF0FF30094A03F18D
:1013B00020010133102B42F82100F8D100234FF017
:1013C000FF30044A03F160010133102B42F8210081
:1013D000F8D1704700E100E038B501224FF0FF344A
:1013E00000251A4B29465A60C3F84843C3F80843FE
:1013F00003F580535A60C3F84843C3F80843A3F584
:101400005043C3F800558022C3F80843104804F045
:1014100055FE802229460F4804F050FE0E4B8022D4
:10142000C3F800552946C3F808430C4804F046FEAB
:10143000802229460A4804F041FE0A4BC3F80845B9
:101440004FF05023C3F8084338BD00BF004001509F
:1014500080800050808100500090005080900050AB
:101460008091005000700150014B1B68184700BF6D
:1014700008000020014B1860704700BF08000020E2
:1014800007B50B46002102460091034800F014F90D
:1014900003B05DF804FB00BF691400002DE9F047BC
:1014A000058B04462807904611D4022905F007054C
:1014B00040F0CD80204604F02CFC78B10138218B1F
:1014C000042811D8DFE800F0C3106D8595000129CC
:1014D0000CBF45F0100545F02005258388F31188E1
:1014E000BFF36F8FBDE8F08701F0070AAA4500F04F
:1014F000A6800027B9463E46A368002B00F0BD80B9
:1015000041F00801218388F31188BFF36F8FA16830
:10151000002900F0BB800D68002900F0B780334639
:1015200052462046D1F80480C047002D76D02B6863
:1015300029461D46F0E701F007035A1F012A1BD870
:10154000002221F00701062B276889B2C4E9002296
:1015500009D13B4603E0628B013262831B68002B9A
:10156000F9D141F002012046218304F0D2FB00288A
:101570007BD041F0200177E0042B0AD121F0070154
:1015800089B22046218304F0C4FB10B141F0200150
:101590002183218B01F0070AAA4550D00027B946C4
:1015A000AAE7236921F0070141F00601062DD3F8CF
:1015B000009021832DD1B9F1000F40D041F00801F6
:1015C000218388F31188BFF36F8F20463949C847BC
:1015D00029E021F00701236941F0040189B2042DBB
:1015E000D3F804902183E6D000274FF0040A3E464A
:1015F00082E721F00701236941F0050189B2052D39
:10160000D3F808902183D6D000274FF0050A3E4634
:1016100072E700274FF0060A3E466DE72B4687E744
:10162000B9F1000FD1D14FF02003EFF3118883F30C
:101630001288BFF36F8F238B23F008032383258B3E
:10164000EA062ED525F01003238305F00705666909
:10165000218B002EBFF66FAF00232768C4E900334B
:1016600021F0070141F001012183218B4FF0000996
:1016700001F0070AAA457FF43FAF002F9BD041F04D
:101680000801218388F31188BFF36F8F002FC7D023
:101690003D68394633465246204604F066FB2F46E5
:1016A000F4E7AB067FF51AAF25F02003238305F09E
:1016B0000705FFE6975D00002DE9F04F82464FF0E9
:1016C00000098DB01D46531E01910393039B58786A
:1016D0005C1C252819D100204FF0FF381E464446D7
:1016E00003460236029031780396392955D81F29CE
:1016F00014D8002900F0F18101992520D0470199E3
:101700003078D04709F10209E0E7002800F0E581D0
:101710000199D04709F101090394D7E7A1F120020B
:10172000192AE9D801A757F822F000BF9517000041
:10173000F9160000F916000095170000F9160000D0
:1017400015180000F9160000F9160000F91600003F
:10175000F91600006118000095170000F916000046
:101760007518000021180000F91600002F1800005D
:101770004F1800004F1800004F1800004F180000CD
:101780004F1800004F1800004F1800004F180000BD
:101790004F18000008460136A5E7582900F0EE80F2
:1017A000A1F16302D7B2172FA6D8172AA4D801A790
:1017B00057F822F0231A00009B180000F9160000C9
:1017C000F9160000F91600007B1800009B180000B5
:1017D000F9160000F91600007B180000F916000049
:1017E000F9160000F916000057190000F91600005C
:1017F000F9160000F7190000F91600009B18000008
:10180000F9160000F916000057190000F91600003B
:101810007B18000025200199D04709F1010955E7FF
:10182000029A4FF0000802F0FE020292B3E7002C89
:101830000DDAB8F1000F0DDA029A002A00F04581A6
:101840000A2224EAE47402FB0414303CA3E7B8F152
:10185000000FF5DB0A2202FB0812A2F130089AE71A
:10186000B8F1000F55F8042B80F23181002A80F284
:1018700030815442022202928DE7682903D1682BFD
:1018800006D1482387E76C2902D16C2B00F0238115
:10189000002B7FF431AF0B467DE77A2B06D17529FB
:1018A00055F8046B14D14FF0000B0CE06C2BF6D004
:1018B0004C2BF4D1073525F00703752903F10805F2
:1018C000D3E9006B06D120283ED1864F013C09E0C8
:1018D0004FEAE67BBBF1000FF5DA7642824F6BEB05
:1018E0004B0B013C0DF12D0305930023049330466F
:1018F00059460A220023FEF72DFC049B303203F1E7
:10190000FF3CCDF810C0DDF814C00CF8012DCDF867
:1019100014C0B4465A46BCF10A0F72F100020646E2
:101920008B46E4D2C3F1010B30330DEB0306B8F163
:10193000000FA6F104066DDA029BD9077CD4A8EB50
:101940000B03A4EB0B0413E02B280ABF674F684F6F
:1019500004F1FF34C6E770290FD155F8042B00239A
:10196000FAB96FF004034FF0050B624E053C604F6F
:10197000029A92076FD4A04665E078216C2B03D1C0
:10198000002355F8042B08E04C2BF9D1073525F03E
:1019900007031D465B6855F8082B232825D18806C8
:1019A00021D5554F023C002601F06001A1F1390B11
:1019B0000DF12D0E02F00F01092988BF5944303175
:1019C0000EF8011D102A4FEA121141EA03714FEA85
:1019D000131073F1000306F1FF3C08D2C6F1010BAE
:1019E00006F13003A1E7454FDCE7414FDBE76646F0
:1019F0000A460346DEE755F8046B304604F025FB43
:101A0000B8F1000F834602DB4045A8BFC3464FF044
:101A10000008374FA8EB0B03002B92DDA4EB080462
:101A2000A6E755F8043B4FF0010B8DF81830013C48
:101A30004FF0FF3306AE9AE7A046EBE70293202073
:101A40000199D047029BB8F10108F7D524EAE47266
:101A5000013C9144A41AB84606E00493029201990D
:101A6000D047029A049B9046424612F8010B002888
:101A7000F3D11A46013A15D5002BACBFC7EB0307CB
:101A80007F425B46013B15D5BBF1000FA8BF5F4409
:101A900026464F44013E14D5002CA8BF3F1907EB42
:101AA000080913E60493029230200199D047049B61
:101AB000029ADFE70293019916F8010BD047029BC7
:101AC000E0E701992020D047E4E70122D3E69046E1
:101AD00061E614465FE64C235DE648460DB0BDE87E
:101AE000F08F00BFD68E0000D48E0000D88E00008C
:101AF000D18B0000E08E0000DA8E0000DD8E000049
:101B0000044608B54FF02002EFF3118382F31288E8
:101B1000BFF36F8F01F056FE204600F0F1FA034844
:101B200004F0EAF800F0AAF8FCE700BFE68E000037
:101B3000054B03EB8000D0F8003223F0E04343F084
:101B40004053C0F8003270470025845008B54FF06C
:101B50002003EFF3118183F31288BFF36F8F01220B
:101B60000220094BC3F8002503F54053C3F8D00603
:101B70000020FFF7DDFF1046FFF7DAFF81F3118841
:101B8000BFF36F8F002008BD0010005048B1054B17
:101B9000054A1B68B3FBF2F35843044B43F00103BF
:101BA000184770473C00002040420F00608500004D
:101BB00002F0B4BA70B5114B0D461C68DCB1104B85
:101BC000196800238B4202DB6FF0010070BD2246D2
:101BD00012F8106B864202D014460133F2E7E06837
:101BE00010B96FF01200F1E706F0ABFA0028F8D058
:101BF00000202C60EAE76FF00C00E7E70C00002003
:101C00007885000070B588B005460C46C0B26946BC
:101C10001646FFF7CFFF00281BDB0098C8B14368CA
:101C20002268029383680195CDE903360023CDE94C
:101C300006230593C56804F053F96DB12846084999
:101C400001AA04F0E1FB079808B9059B236008B0DE
:101C500070BD6FF01500FAE76FF01200F7E700BFF4
:101C60007B5F0000014803F093BC00BFFC850000CF
:101C7000014910220A60704710ED00E072B6404042
:101C800080F31188BFF36F8FBFF34F8F30BF62B601
:101C9000BFF36F8F704700BF72B6494081F3118860
:101CA000BFF34F8F20BF80F3118862B6704700BF2B
:101CB00040B2002807DB01234109034A00F01F005E
:101CC000834042F82130704700E100E040B2002834
:101CD0000CDB01220649430900F01F00824020333B
:101CE00041F82320BFF34F8FBFF36F8F704700BFC2
:101CF00000E100E0054B420953F82220012300F0E7
:101D00001F0003FA00F01040704700BF00E100E040
:101D100040B2002801F10101ACBF00F16040064B68
:101D20004FEA4111C9B2ABBF00F5614000F00F00AE
:101D300080F800131954704714ED00E030BFFFF72E
:101D4000FDBF00BF0B4A08B50B4B22F07F029A6023
:101D5000BFF34F8FBFF36F8FD3F8882022F4700248
:101D6000C3F8882003F0AEFA03F0F4FA00F08CF91F
:101D700003F0B4FA0000000000ED00E01EF0040FD4
:101D80000CBFEFF30880EFF30980816911F8021CA2
:101D90000229FFD001B504F019F901BD0446084637
:101DA00011461A46002383F30B880A4B2025A3F51E
:101DB000205686F30B8883F3098863B64FF000033F
:101DC00083F31188BFF36F8FA04785F31188BFF3AA
:101DD0006F8FFEE7585D002001B5EFF30580A0F19D
:101DE00010004FEAC0000449014409C99847BDE802
:101DF000014002490847000098820000011E0000CF
:101E0000704700BF154B9A6A12F0007F9A6A14BFA0
:101E10001E201D2012F0807F9A6A18BF1F2012F426
:101E2000801F9A6A18BF022012F4002F9A6A18BF06
:101E3000212012F4802F9A6A18BF222012F4003F4A
:101E40009A6A18BF232012F4803F9A6A18BF242090
:101E50006FEA02426FEA12429A62704700ED00E0B8
:101E600010B5194B0246986A9C6A10F4805F14BF43
:101E70001720162014F4006F9C6A18BF1820A405C0
:101E800009D5986B986A000404D51AB19A6A22F4AD
:101E900000429A6219200C4B9A6A12F4806F9A6A77
:101EA00018BF1A20D2050CD49B6A13F4005F18BF28
:101EB0001C20054A936A43F47F43936200230B700E
:101EC00010BD1B20F5E700BF00ED00E010B51C4B76
:101ED0000246986A9C6A10F0100F14BF112010205F
:101EE00014F0080F9C6A18BF1220A40709D5586B7C
:101EF000986A000604D51AB19A6A22F080029A62A2
:101F000013200F4B9A6A12F0010F9A6A18BF14201F
:101F100012F0200F9A6A18BF1520D40658BF9B6A8A
:101F2000074B9A6A920642BF5A6A22F400525A62DA
:101F30009A6A42F0FF029A6200230B7010BD00BF44
:101F400000ED00E070B5444B06465B6800258AB0A2
:101F5000C3F3080385F31188BFF36F8F02F07F404E
:101F6000B0F17F4F11D102F00C0008280DD01007FE
:101F70004CBF0E4601250022033B8DF80720032BA2
:101F800005D8DFE803F01E5C60592E46F3E7002415
:101F90009DF807309BB92022314602A804F083F84F
:101FA000099B002D53D0C3F3080222B96FEA5323D3
:101FB0006FEA43230993204602A904F005F80AB00A
:101FC00070BD254BDA6A9107E1D4DA6A002ADEDBBC
:101FD000DA6A5200DBD55A69B16942F480725A61FB
:101FE000BFF34F8FBFF36F8F5A6931F8021C22F491
:101FF00080725A61BFF34F8FBFF36F8F4DF602723D
:10200000914209D09A6AD2B242B101200DF1070182
:10201000FFF75CFF0446BBE73468B9E79A6A12F43D
:102020007F4F05D001200DF10701FFF719FFF1E700
:102030009B6AB3F5803FAAD3FFF7E4FEEAE70020EE
:102040000DF10701E4E700200DF10701EDE723F4AE
:10205000FF7323F00103ADE700ED00E0044B5A6984
:1020600042F010025A615A6942F480625A61704724
:1020700000ED00E0EFF30880EFF3098101B572464F
:10208000FFF760FF01BD00BF002320210348C218F5
:102090000133452B82F80013F9D1704700E100E0CD
:1020A000002080F31488BFF36F8F002080F30A882C
:1020B00080F30B88FFF77CFD00200E490860BFF31A
:1020C0004F8F0D4880F3088800F03EF8202080F301
:1020D00011880A484FF40061401880F30988EFF333
:1020E00014800221084380F31488BFF36F8FFFF739
:1020F00029FE000094ED00E0585D0020582D0020DE
:10210000BFF34F8F0549064BCA6802F4E0621343E0
:10211000CB60BFF34F8F00BFFDE700BF00ED00E0D5
:102120000400FA05002318460649D1F89020C2F3AE
:102130000722934200DB7047C1F89830C1F8A00035
:102140000133F6E700ED00E010B572B6002484F329
:102150001388FFF7E7FF23464FF0FF300C4A03F1E7
:1021600020010133102B42F82100F8D100234FF059
:10217000FF30074A03F160010133102B42F82100C0
:10218000F8D162B6BFF34F8FBFF36F8F10BD00BFA2
:1021900000E100E00121024B024A034800F0DCB8F4
:1021A00000000720000000200486000010B50C7A13
:1021B0000B6804F01F0223F01F031A43CB68640965
:1021C00023F01F03054943EA440343F00103C1F828
:1021D0009800C1F89C20C1F8A03010BD00ED00E0CF
:1021E0002DE9F04F0F46144606464FF000084E4DBD
:1021F00085B0B84580F29480D6F80490B9F1000F0C
:1022000036D0B9F11F0F40F2898019F01F0F40F04E
:102210008580D6F800A01AF01F0F7FD1504603F03A
:10222000E4FE834609EB0A00013803F0DEFE834535
:1022300074D11BF1160F71D05C456FDDC5F898B0F5
:10224000D5F89C10C5F898B0D5F8A03021F01F0142
:1022500043F01F0AD6E900321A44994202F1FF39CD
:102260001ED1CA4508D131465FFA8BF003F0C6FE95
:1022700008F101080C36BCE73146C5F898B0D5F82E
:102280009C3022F01F0203F01F031343C5F89C305B
:10229000E0B203F0B3FE10F1160F3FD0441CE7E7A5
:1022A000C5F898B0D5F8A020013B23F01F0302F039
:1022B0001F021343CA453146E0B2C5F8A030E8D04A
:1022C00003F09CFE10F1160F28D0C5F898B0D5F891
:1022D0009C209DF808300AF1FF3A62F304038DF860
:1022E0000830D5F8A0309DF808205B0863F347124A
:1022F0008DF80820D6E900321344009323F01F0321
:10230000411C5344A3EB0903C8B223F01F03072861
:10231000039303D86946FFF749FFBFE76FF0150441
:10232000204605B0BDE8F08F00ED00E00522044B2B
:10233000C3F89420BFF34F8FBFF36F8F704700BF78
:1023400000ED00E0BFF35F8F0022024BC3F8942042
:10235000704700BF00ED00E010B5034C2278FFF796
:102360003FFF207010BD00BF4029002038B50E4D42
:102370002C68082C15D80020FFF7E4FF0B4B0C4A03
:10238000C3F8C020844205D10A4B00201C70FFF71F
:10239000CDFF38BD696801EB0011FFF707FF013081
:1023A000F0E74FF0FF30F4E71086000000ED00E0AA
:1023B000AAFF440040290020014B1860704700BF6D
:1023C00010000020084B70B5C31A0D4607499B103A
:1023D000044659434022064803F098FE2B46014626
:1023E0002046BDE8704018475C0E0020B76DDBB694
:1023F00008820000402373B50B4C0093041B0B466E
:102400000D460A49A41061430646094A094803F0EB
:10241000A9FE011E05DA30462B4602B0BDE8704029
:10242000184702B070BD00BF5C0E0020B76DDBB670
:10243000D56100000882000010B54FF02003EFF3D3
:10244000118483F31288BFF36F8F074A136823F058
:102450000201DB07116002D4012005F0FAFD84F3CC
:102460001188BFF36F8F10BDFC0E00202DE9F843DB
:102470000022012106460520FFF74AFC114801F021
:1024800067FF114B984219D105F076FD00244FF0FB
:102490001C090C27DFF834803569414609FB0450DC
:1024A00003F087FC002807DB012307FB04551C44CD
:1024B000042CAB67F0D10020BDE8F8836FF0040076
:1024C000FAE700BF052500000000AD0B38860000CC
:1024D00001460C2300224B4370B50848C4187833DA
:1024E0001844D4E91C56226703F0FDFD2DB1324695
:1024F0002B46BDE870400248184770BD5C0E0020B6
:1025000008820000052811D8DFE800F0030E101043
:102510000C0A074B986F10F0070007D1FFF7D8BFE0
:102520000220FBE70320F9E70120F7E7704700BF2F
:102530005C0E002008B54FF02003EFF3118183F308
:102540001288BFF36F8F124A136843F002001060C5
:10255000DA0708D481F31188BFF36F8FBDE8084014
:10256000012005F01BBD4FF05023D3F80C24D3F805
:102570000C34D307EED5074803F0B5FD81F311887D
:10258000BFF36F8FBDE808400020FFF7A1BF00BF79
:10259000FC0E0020D40E0020F8B501220646234987
:1025A000D1E8EF3FC1E8E02F0028F9D133B9204945
:1025B00020484B60CB608A6003F00EFC731E012B39
:1025C0001FD805F0DDFD0446E0B91B4B1B78CBB1ED
:1025D0004FF0502302220546C3F808234FF050273E
:1025E000D7F81834D7F81824D20315D503F003030D
:1025F000012B01D0012E0FD194B185F31188BFF3C7
:102600006F8FF8BD4FF02003EFF3118583F312882D
:10261000BFF36F8F0124E1E72846FFF73DFBDFE7BB
:102620004FF050230222C3F80423EAE7580E00209B
:10263000480E0020780E0020562D002008B50748CF
:1026400005F07FFD38B10648FFF7B6FE0448FEF7F7
:1026500011FF002008BD6FF01200FBE75082000060
:10266000652600000A2838B50446074D04D1AB683A
:102670000D2128465B689847AB6803485B68E1B268
:102680009847204638BD00BF5082000000F17440DA
:1026900000F5A6000A289ABF024B33F910006FF02C
:1026A0000F00704750890000024B0B60012313603C
:1026B000704700BFFC86000000487047908600000D
:1026C0000C4B10B5994204460FD14FF02003EFF3A5
:1026D000118083F31288BFF36F8F237833B1002307
:1026E000237080F31188BFF36F8F10BDFFF7D4FA0A
:1026F000EBE700BF0000AD0B38B504460069417838
:10270000A9B90C4D03F08DFD2B785BB902460A493F
:10271000606802F059FBFFF7B9FFB0FA80F3014699
:102720005B092B70206903F074FD084638BD002159
:10273000FBE700BF432900200B62000038B50446C8
:1027400000694378ABB903F06CFD0A4D02F072FCEE
:10275000A84209D102F090FC0022074B20691A70B0
:10276000BDE8384003F055BD4CF2503005F00EFD89
:10277000ECE738BD0000AD0B432900202DE9F84FF0
:102780000D1E80461746D0F8049066DBD9F8183045
:10279000AA189A4261D8C5F30B02002F5DD0C7F387
:1027A0000B03134359D1FFF7A7FF044648BB01466B
:1027B000404603F079FD044618BBD8F8100003F03A
:1027C00030FDDFF89CA0D9F81830BB421FD105F0CE
:1027D000ACFCBB4606463146D8F81000FFF770FF48
:1027E00056452AD1B7EB0B075D44ECD1D8F8100061
:1027F00003F00FFD0121404603F056FD002C08BFF9
:1028000004464046FFF79AFF2046BDE8F88FB7F52B
:10281000803F09D3ABB2ABB92946012002F07AFC64
:102820004FF4803B0646D6E7B7F5805F0AD20D49E4
:10283000D8F81000FFF744FF0A4E3046FFF726FF96
:102840000446D3E7C5F30B000028F0D1294602F077
:1028500061FC4FF4805B0646BDE76FF01504D3E7DB
:102860000000AD0B0400AD0B2DE9F34705460E4605
:1028700098461746002A00F08780002B00F08480DD
:10288000042B02D913F0030F7ED1B3077CD1002EA5
:102890006A6879DB926906EB0803934274D828468C
:1028A000FFF72AFF044698B90146284603F0FCFCCE
:1028B0000446286903F0B5FC8CB1286903F0A9FC33
:1028C0000121284603F0F0FC2046FFF7DFFE044616
:1028D0002846FFF733FF204602B0BDE8F087B8F185
:1028E000030F1ED8042132460DEB010005F01AFC3F
:1028F000044601462869FFF7E3FE254B9C4234D18C
:102900004246394601A803F0CEFB042132460DEBC6
:10291000010005F004FC044601462869FFF7D0FEDB
:1029200023E007F06043B3F1005F29D0DFF860A037
:10293000B8F1040FC14628BF4FF0040939464A4692
:1029400001A803F0B0FB042132460DEB010005F0B5
:10295000E6FB044601462869FFF7B2FE544504D160
:10296000B8EB09084F444E44E2D1286903F051FC0A
:102970000121284603F098FC002C08BF0446A3E779
:10298000324641463846C4E76FF01504A3E700BF5E
:102990000000AD0B2DE9F04F074688461C46164651
:1029A00085B0002A00F09980002B00F09480002967
:1029B0004268C0F292809269CB18934200F28D80F7
:1029C000FFF79AFE054600287ED1C8F1000505F004
:1029D0000305386903F025FCA54228BF254673424C
:1029E00003F0030306F0030958BFC3F10009C9F15E
:1029F000000909F00309A14528BFA146631BA4EB08
:102A0000090424F0030423F0030AA245C8BFA24628
:102A100003F0030BC8BFA3EB040BBAF1000F18D0EF
:102A200006EB090308EB050251461846019305F031
:102A300079FB044601463869FFF742FE284A944272
:102A40003BD14D4505D0019B52461946701903F004
:102A500013FBBDB1C5F104090421A8EB090202A8CA
:102A600005F060FB044601463869FFF729FE1C4B60
:102A70009C4222D109F108032A4630460DEB03019E
:102A800003F011FBBBF1000F16D0082108EB050283
:102A900052440DEB010005F045FB04460146386940
:102AA000FFF70EFE0E4B9C4207D10AEB05005A467B
:102AB00002A9304403F0F7FA094C386903F0A9FB86
:102AC0002046FFF7E3FD05463846FFF737FE284668
:102AD00005B0BDE8F08F1D46F9E76FF01505F6E784
:102AE0000000AD0BF0B5436887B01D6A04460021B5
:102AF000284603AA03F001FD002866DB039B2A6831
:102B00001979186800F008FA00285EDB4FF05027AA
:102B10000125002201212B20FFF7FAF866682269BF
:102B200030463D49C7F8B85502F04EF90223C7F8C0
:102B3000B835FFF7ABFD002847DB0022AB2320466A
:102B400003A9CDE9032205928DF80C3003F071FB47
:102B500000283ADB232005F019FBF37A023BAB4255
:102B600005D9B57A033D012D8CBF002501252046EE
:102B700003F0AFFB002828DBC2B2C0F3801085420F
:102B800001AD24D12046FFF7D9FD03260023CDE96E
:102B9000026304939F232046CDF804D08DF80C30B7
:102BA0000595FFF7A9FD024678BB204603A903F06F
:102BB00040FB05462046FFF7C1FD4DBB606832462D
:102BC00069461C3003F048FA10BB07B0F0BD002383
:102BD00082F04002ADF800308DF80020012220463E
:102BE00003A9CDE90223CDF804D005938DF80C207C
:102BF000049503F01EFB0028E7D1204603F069FB93
:102C00000028E2DBC307F8D4BCE72046FFF796FDB7
:102C10006FF01200D9E700BF0B620000024B0B609F
:102C200001231360704700BF000F00200048704769
:102C30001887000010B505F06CFA034C206005F011
:102C400065FA6060002010BD000F0020F8B50E4648
:102C50001946304617461D4603F056FBB8B146EA02
:102C6000050414F0030412D14DB12B19032BA6EB6C
:102C7000040006D8074AD2F80034DB07FBD5002051
:102C8000F8BD3B1B196801F07BFF043CEDE76FF0DA
:102C90001500F5E70090035030B5406801F01F04BF
:102CA000057BB2F5001F85B044EA451405D12046E6
:102CB00001F00AFE002005B030BD0025B2F5800FFE
:102CC000CDE9025514D1B3F1007F0CBF04230523D5
:102CD0008DF8083000232046194602AA01F032FC84
:102CE0001F4B984238D10121204601F0A7FDE1E7B2
:102CF000B3F1C06F25D0B3F1007F14BF01230223CD
:102D00008DF808308368CB40D907E3D4B2F1A07FB7
:102D1000E0D1144A14486109012908BF024604F0B1
:102D20001F03803352F82330DB07D3D40DF107059E
:102D30002946204601F02EFD0C4B984203D0039506
:102D4000C8E70323DCE7284601F072FD044B9842F4
:102D5000F5D06FF00B00AEE76FF01500ABE700BFEA
:102D60000000AD0B00258450002884500400AD0BFA
:102D700010B501F04DFD044668B901F021FD084B86
:102D800098420AD12146074801F0FEFC224605215F
:102D90000D20FEF7BDFF002010BD6FF00400FBE723
:102DA0000000AD0BA92D00004209034670B502D00A
:102DB000012A17D070BD0D4E326951680029F9D033
:102DC000012503F01F030C689D400029F2D08A689A
:102DD0002A4002D030464B6898472CB123682146E0
:102DE0001C46F2E7024EE7E72346F8E73882000088
:102DF000208200002DE9FF41476801F01F053B7B61
:102E0000144645EA43150E4628460DF1030101F02C
:102E1000C1FC14F4403F80460BD1284601F07CFDF4
:102E20003C4B984503D19DF8030001F0FBFC0020CA
:102E30000CE000232846194602AACDE9023301F02E
:102E400081FB344B984204D06FF0150004B0BDE80C
:102E5000F081804503D19DF8030001F0E3FCA3035A
:102E600049D540F206332340B3F5837F19D00CD8FF
:102E7000062B17D004D8ABB1022BE5D1042311E007
:102E8000B3F5807FE0D101230CE040F202229342AF
:102E900026D0B3F5407F25D0B3F5007FD4D10223EF
:102EA00000E007238DF8043084F48033C3F300433B
:102EB000E0068DF805304CBF0323C4F34013210313
:102EC0008DF8063010D501237A68B3409360002254
:102ED000284601A901F0E4FB0E4B9842A7D0B3E7C6
:102EE0000523DFE70323DDE7620341BF01237A689F
:102EF000B340D360EBE7E3064FF000034CBF03247D
:102F0000C4F340141A46284601A98DF8044001F084
:102F100019FBE1E70000AD0B4FF0010C2DE9F04784
:102F20005B4E5C4F00EB8101814202D10020BDE885
:102F3000F087046804F07F03C4F343257F2B4FEA36
:102F4000144408BF4FF0FF33222C00F29D80DFE8CD
:102F500004F0122328422B3E429B9B9B9B45729B75
:102F60009B9B9B9B9B9B9B9B757D80839B9B9B863D
:102F70008C8F92959800C2F80C354FEA5318B8F12F
:102F8000010F14BFB646BE4603F01F040CFA04F44A
:102F9000CEF80840012402E0C2F814350024A64609
:102FA00023E0C2F80835E8E70024C2F808354FEA04
:102FB0005319B9F1010F14BFB046B84603F01F0E04
:102FC0000CFA0EFEC8F80CE04FF0010E0DE0C2F84E
:102FD0000C350124EBE7C2F81035DFE7C2F80835FD
:102FE000002DDBD100240625A64650F804AB03F0E3
:102FF0001F090AF40058B8F1000F4FEA53131CBF21
:1030000001244FF0000E012B0CBFB846B04608EB70
:103010008908D8F80032CAF3C11A03F0E0492B023C
:1030200043EA8A0343EA0E0343EA440343EA0903FB
:10303000C8F8003278E7C2F80C35D1E7C2F860353D
:103040000468C4F38034002CC3D096E7C2F864351A
:10305000F6E7C2F86835F3E7C2F86C35F0E7C2F876
:10306000243501244FF0000EBFE7C2F8283584E76D
:10307000C2F83035F5E7C2F83435F2E7C2F8383532
:10308000EFE7C2F83C35ECE76FF085004FE700BF93
:103090000025845000288450F8B504460D46076981
:1030A00005F06EF890B92C4B1B787BB164266068F4
:1030B00003F059FAE0B9012004F099FE013EF6D17F
:1030C000F4E786F31188BFF36F8FEFE74FF020032B
:1030D000EFF3118683F31288BFF36F8F6068314678
:1030E00003F041FA90B986F31188BFF36F8FEDE7D3
:1030F0004FF02003EFF3118683F31288BFF36F8F35
:103100006068314603F02FFA0028DAD03B691D7061
:10311000626838691368C3F844050120C3F848059C
:103120000020C3F82001D3F82051C3F85801526899
:10313000D3F85801D20608D5082062681268C2F890
:1031400000054FF48002C3F8042301229A6081F342
:103150001188BFF36F8FF8BD562D0020F0B54B7965
:10316000012B29D0032B24D110278B79032B20D1BD
:10317000CE790EB1012E1CD10A79012A1ED0022A65
:1031800020D0B2B914460B684568B3F5164FD5F890
:1031900000C06ED033D8B3F5165F6DD01CD8B3F530
:1031A000966F6BD010D8B3F5967F6AD0B3F5167FC3
:1031B0006AD06FF085005BE00027D6E74FF480749B
:1031C0000E22E0E70024FBE7B3F5166F5FD0B3F5FE
:1031D000965FEED1384B3CE0B3F5E14F5AD007D8BB
:1031E000B3F5615F58D0B3F5964FE2D1334B30E081
:1031F00047F61225AB42DCD14FF4000329E0B3F5CA
:10320000613F4BD013D8B3F5963F4AD009D84DF65D
:10321000C025AB4247D0B3F5614FCAD14FF46B0321
:1032200017E0B3F5E13FC4D14FF0EB7311E0B3F514
:10323000612F3BD008D8224DAB423AD0B3F5E12FF5
:10324000B7D14FF0E86304E01E4DAB42B1D14FF06F
:1032500080530569CCF8243543683A431B683443EE
:103260002243C3F86C252B1D03C983E8030000200B
:10327000F0BD4FF41D03ECE7134BEAE74FF49E2338
:10328000E7E74FF4A033E4E74FF41C33E1E74FF4F2
:103290001D23DEE70D4BDCE70D4BDAE74FF06C73D7
:1032A000D7E70C4BD5E74FF46503D2E74FF07063D7
:1032B000CFE74FF08063CCE700B0130000A04E00D2
:1032C00090D0030040420F000050270000C075005E
:1032D00000F03A0000903A012DE9F74380460022C1
:1032E00001210820FEF714FD0820FEF7E1FC002173
:1032F000D8F80470D8F810603C6801AAC4F800152A
:10330000C6F80080D7F80C90484603F0F6F8051E82
:103310004DDB019BD9F8002019791868FFF7FCFDF7
:10332000051E44DB4046311DFFF718FF0546002807
:103330003DD17B68990713D506F1180001F07CF8A0
:103340001E4B984237D1337E43F00043C4F8A0317E
:10335000C4F88C300123327E9340194AC2F80435F8
:103360000823C4F800353B7A53B9C4F81031D4F8B7
:1033700010317369C4F834350123C4F8383523603B
:103380007B689A075CBF4FF48073C4F804337B6892
:10339000DB0644BF4FF48003C4F804333369C4F838
:1033A00044350023C4F848350123A360E360284670
:1033B00003B0BDE8F0836FF00405F8E70000AD0B43
:1033C000007001500123834070B5DC430B4AD2E802
:1033D000EF1F01EA0405C2E8E65F002EF7D14FF4C3
:1033E000803282400648C0F80823BFF35F8FBFF3E6
:1033F0006F8F0B4214BF0120002070BD240F0020EE
:103400000050015070B40E4922F07F46D1E90034DB
:10341000D01AC31844F10004C1E90034A6F5001322
:10342000B3F5400F09D2074B1B681A0A1B069C19FB
:10343000054B42F10005C3E9004570BC01F0EABF4D
:1034400048010020280F002050010020D9B101239D
:103450000D4A8340D2E8EFCF4CEA030CC2E8E1CF3B
:103460000029F7D14FF48033084A8340C2F804336F
:10347000074BD3E8AF3FC340DB0742BF4FF4001216
:10348000044BC3F800217047240F00200050015066
:10349000200F002000E100E00D4B1868010A000633
:1034A000BFF35F8F0B4BD3F80435181841F10001BF
:1034B000B3F5801F0AD2084BD3E90023904271EB89
:1034C000030303D210F1807041F10001704700BF87
:1034D000280F002000500150500100202DE9F74F27
:1034E00016461F460446FFF76DFF0090FFF7D4FF16
:1034F000B04271EB070350D2384B301A67EB010131
:10350000984271F1000165D2354B03EB0413D3E906
:1035100002239F4208BF964249D04FF48039314977
:1035200009FA04F9204626F07F4BC1F8489303F0CE
:1035300063F84FF0030A584604F15005AD00ADB2F0
:1035400005F1502504F5A873274A05F58035019348
:10355000DDF804C020F07F4341F82C30C1F84493DB
:10356000D1F80485A0EB0800033820F07F4090429A
:103570001DD9286860B1D1F80485A8EB0B0020F0B4
:103580007F40B0F5000F12D9204603F035F8164AF7
:103590000AEB08000AF1010ADAE70123134AA34003
:1035A000D2E8EF0F1843C2E8E10F0029F8D1002557
:1035B0000B490C98230101EB0412C850C2E90267C1
:1035C0000D9B536020460099FFF740FF284603B04B
:1035D000BDE8F08F6FF01505F4E700BF0100800033
:1035E0003801002000500150FDFF7F00200F002017
:1035F00073B500254FF0FF304FF0FF31184C194BD9
:103600000226C4F80833C4F84833174BC4F80855E9
:10361000C3E902014FF480334FF40012C4F80433BD
:10362000124B0121C4F804631520C3F880212A46F7
:10363000FEF76EFB1520FEF73BFB01230C4AA3604F
:10364000236013600B4B0C4A00932846002301951E
:10365000FFF744FF3046FEF79FFF284602B070BDDB
:103660000050015003000F003801002000E100E08D
:10367000240F002005340000FFFF7F002DE9F743F1
:103680002E4BD3F8042390070BD5D3F8042142B175
:103690000022C3F804212A4AD3F804311368013305
:1036A0001360264AD2F80433D90327D5254BD3E833
:1036B000EF1F21F00100C3E8E40F002CF7D1CB0786
:1036C00002D4D2F84031CBB100251C4CC4F8405193
:1036D000D4F84031FFF7E0FE4FF02003EFF3118202
:1036E00083F31288BFF36F8F174BD3E90267B042A1
:1036F000B94106D282F31188BFF36F8F03B0BDE8E2
:10370000F0834FF0FF38D3E900104FF0FF391D6010
:10371000C3E902894FF48033C4F84833C4F84051F8
:10372000D4F8403182F31188BFF36F8F0029E5D0C0
:10373000009032463B4628468847DFE7005001505C
:10374000280F0020200F002038010020431C13B553
:1037500021D0012821DD124A124B9042D4BF0446E9
:103760001C46FFF799FE104B0E49D3E90023801A3F
:10377000B0F5000F28BF002404448C4228BF0C463B
:1037800000200A49A2180190009143F10003FFF7BD
:10379000A5FE02B010BD034CE3E70124E1E700BF42
:1037A000FEFF7F00FFFF7F0048010020053400007E
:1037B00008B5FFF771FE024B1B68C01A08BD00BFB9
:1037C00048010020012310B5074C15206360FEF767
:1037D0007DFA4FF40012054BC4F80833C4F848339F
:1037E000034BC3F8802110BD0050015003000F00AF
:1037F00000E100E040EA0103C3F30D0330B58BB9EB
:1038000040F21515094C890BC0F38730994201D15C
:10381000002030BDC218D2B202F5C07244F8225066
:103820000133F3E76FF01500F3E700BF00300050FD
:1038300030B5816885B0103921F00704054602F0E3
:1038400095FB10220146684602F038FC10226846BB
:10385000064902F028FC10236A462146284602F059
:1038600055FB003818BF012005B030BD6689000047
:1038700030B50D46816887B0102302AA103904467E
:1038800002F02FFB002802DA012007B030BD102221
:10389000204602A902F0DFFE00283AD110221E497C
:1038A00002A802F0D9FB00280CBF012302232B70D1
:1038B000204602F0BCFE012301460DF1070220461E
:1038C00002F00FFB0028DFDB9DF80730204603F0F5
:1038D0000F021B096A702B7101220DF1070102F022
:1038E000BAFE10B96B78042B03D901236B70002347
:1038F0002B71A2682046183A22F00702083AA91C48
:1039000002F0BCFE0028BFD12046E91C02F00FFFE8
:10391000BBE70323CBE700BF668900007FB5054600
:103920006946022002F009FF044610B1FF2004B0EE
:1039300070BD052002A902F000FF012836D12A46F9
:103940004921284802F0BFFA274B8DF80C4002931A
:1039500000229DF800509DF80860244C29462078EC
:1039600002F06BFE48B33146607802F066FE20B389
:10397000A378042B03D09DF8031099421DD1E3785E
:10398000042B03D09DF80B10994216D12379042BF8
:103990000FD16379022B1BD1154A1648492102F039
:1039A00092FA6079831E022BC1D9BFE70028CFD0DD
:1039B000BCE79DF802109942EBD00132032A04F1D2
:1039C0000604CBD10C48492102F07DFA0120AEE774
:1039D000032B05D0094A0A49042B08BF0A46DCE735
:1039E000084ADAE7F88F0000030103036B90000038
:1039F000DA8F00004390000056900000DF8F000037
:103A0000F18F0000D58F000001680E4A03469142F5
:103A100015D1C169A2F11022A2F1EF1291420ED18B
:103A20008268012A0BD8C26812B101698A4206D0A5
:103A3000586928B19B691B1A5842584170470120A8
:103A4000704700BF55AA00FF70B50D4B9E68A6B128
:103A50003046FFF7D9FF044678B9F3686BB935698A
:103A60000DB9204670BD2846FFF7CEFF28B9EB6898
:103A7000B34202D12E462D69F2E70124F1E700BFDF
:103A80002C0F00202DE9F8433F4F3C68D4B1BC68AF
:103A9000C4B100284AD0002948D001FB00F5B5FB8D
:103AA000F0F0884242D1281D40D8A9070DD025F05A
:103AB00003060436FC6803E06368B34238D2A469A5
:103AC000002CF9D12046BDE8F8832E46F2E7FB60D2
:103AD00041E006F120016318203A5A600022C3E950
:103AE00002242A4822691A6160502949D96102B129
:103AF000D36062695A61A1699961AAB193619A69B7
:103B000002B153614FF0010923610023C4E9016947
:103B1000C4E905333B69DB072ED5FFF795FF58B3A2
:103B20001C4B48461B6826E0FB60E8E70024C9E719
:103B3000A3681BB1174B01201B689847626804F10A
:103B40002008921B232AC4D80123A360D4E90523AB
:103B5000002ABCD09361A3690BB162695A6100234A
:103B6000C4E905333B69DA0706D5FFF76DFF18B1E5
:103B70000120084B1B6898472A46002140464446CE
:103B800002F09CFA9EE700BF2C0F002055AA00FF10
:103B9000669911EE3000002070B50546002800F04F
:103BA0008880444E3368002B00F08380B268002A7E
:103BB0007FD0834203D872681344984203D33E4BAC
:103BC00001201B689847A5F120042046FFF71CFF41
:103BD00018B1394B01201B68984755F8183C012B48
:103BE00003D0354B01201B689847002345F8183C4B
:103BF00055F8143C3BB39A682ABB55F81C2C02F1CB
:103C000020015A680A445A6055E905321A6155F88C
:103C1000145C2B6903B1DD6020220021204602F0F4
:103C20004DFA286910B18368002B2ED033699B07A9
:103C30003FD5FFF709FF00283BD0BDE870401E4B81
:103C400001201B68184755F8100C00282AD08368FB
:103C500043BB426863681344203363600369236194
:103C6000D4E905239AB9CBB9436963618269A2613A
:103C7000B3B19C61A36903B15C61236903B1DC60EA
:103C80002022002102F01AFAD0E72C46E1E79361E6
:103C9000A369002BE8D062695A61E5E7F360F7E7B2
:103CA000F460E7E7F36845F8083C03B15C61F46051
:103CB000BCE770BD2C0F00203000002038B50C464A
:103CC000142200210546134802F0F8F9124913485E
:103CD00000F034F8232C1CD915F003031FBF043C5B
:103CE000E418C3F10403ED1822460021284602F02F
:103CF000E5F9084B0A49C3E90054203C9D606C601B
:103D00009A6811609A68A1F11021A1F1EF11D161B7
:103D1000DA6038BD2C0F0020993B0000853A000086
:103D200055AA00FF014B1B68184700BF3800002050
:103D3000014B1B68184700BF34000020024B18607D
:103D4000024B00201960704738000020340000202A
:103D5000F8B500F108064768044630460D4602F003
:103D60006AFE87424BD16368B3F5807F47D8002154
:103D7000304602F058FF002841DD0021304602F0B5
:103D800046FEE0B345B9294604F1140002F04BFFAA
:103D9000002834DD0020F8BD04F12C050021284660
:103DA00002F041FF00282ADD0021284602F02FFE04
:103DB00028B304F138050021284602F034FF00281A
:103DC0001DDD0021284602F022FEC0B1002104F1D1
:103DD000140002F028FF002811DD002104F1440046
:103DE00002F021FF00280ADD002104F1500002F05A
:103DF0001AFF002803DD002104F15C00C6E701483A
:103E0000C9E700BF80BFFFFF70B500210446FFF780
:103E10009FFF054610B10E4D284670BD04F10806FF
:103E2000304602F004FE7F28F5D914342946204696
:103E300002F0EDFD0028EED0204602F0F8FD01284A
:103E4000E9D93146204602F0ADFE0028E4DBE2E786
:103E500000BEFFFFF0B50C4687B0002105461646B0
:103E6000FFF776FF002839D103A802F028FD21468C
:103E70006A6803A802F0E5FD044618B103A802F041
:103E800024FD0CE005F10804214603A802F08AFE97
:103E9000002807DB03A802F018FD6FF00304A4F567
:103EA000854418E005F1680303A96F68084600938C
:103EB00005F11402234603F090F904460028DDD1F1
:103EC0003A46314603A802F0D2FD044603A802F0A8
:103ED000FCFC002CE3D1204607B0F0BD004CFAE713
:103EE00080BFFFFF012903462DE9F04143D8234A53
:103EF000002918BF9046224A224F18BF964602F169
:103F0000794202F5740202F5016218BF94461E4A16
:103F10001E4818BF17461E4A1E4E18BF164602F10D
:103F2000D14208BF804602F5C0121B4802F51E624E
:103F300008BF8646194D1A4818BF1546194A08BFCA
:103F40008446194C194818BF1446A2F11162A2F513
:103F50000C22A2F28E2218BF02460020C3E9028E74
:103F6000C3E90000C3E904C7C3E90665C3E9084221
:103F70009966BDE8F0816FF07300FAE7D89E05C13D
:103F800007D57C363AF54FA539590EF767E6096A29
:103F9000310BC0FF7F520E5185AE67BB8C68059B0D
:103FA00072F36E3CA78FF964ABD9831FA44FFABE9E
:103FB0002DE9F04FD1B00DF58E7B5A46031D0193CC
:103FC00000F124030393019B53F8040F42F8040FFC
:103FD00003989842F8D1DDE948074FF000094F9B5C
:103FE0004CAD0293DDE94AE30493424B06AA0593E4
:103FF00095E82011B9F10F0F63D84C780B782404A1
:1040000044EA0364CB7823438C7843EA04234FEAE1
:10401000F52A8CEA0804059E8AEAB51A2C408AEA39
:10402000756A84EA0C04544456F804AB9360544413
:104030002344029C4FEA703A234440EA0704059661
:104040008AEAB00A04EA0E0400EA07068AEAB05ACD
:104050003443544409F10109DDF810A0B9F1400FCF
:104060009A4402F10402234401F10401CDF808C08E
:10407000CDF810E01ED1CDE90634CDE94E8CCDE966
:104080004CA5CDE94A7ECDE94830019A52F8043F6B
:1040900001925BF8042F1344019A1360039B93422F
:1040A000F3D106A84FF4947101F07AFA002051B0D0
:1040B000BDE8F08FBE46C4460746A846184655469A
:1040C00098E7136852F8384C4FEAF34A8AEA734A81
:1040D0008AEA932A52F8143C52F8346C234452F87A
:1040E000344C53444FEAB44484EAF61484EAD604C8
:1040F00023448CE7AC8700004FF47F03D3F83021D2
:10410000D3F83431072A05D1023B032B02D8024AE7
:10411000D05C7047002070478590000008B5FFF71D
:10412000EBFF58B1644BD3F8202A3AB90D21C3F8FC
:10413000201A0121C3F81C19C3F81C290022D3003E
:1041400003F57F03D3F80013013107D0D3F8001330
:104150000132D3F80433202A0B60F0D1FFF7CCFFF3
:10416000002840F0A080FFF7C7FF40B1534B544AEE
:10417000C3F830254FF050230122C3F858254FF4DF
:104180007F03D3F83021D3F83431072A09D1023B19
:10419000032B06D84B4AD35C1BB100224A4BC3F811
:1041A0004C25FFF7A9FF50B14FF05023D3F800245E
:1041B000D10742BF0022C3F81421C3F818214FF4DD
:1041C0007F03D3F83021D3F83431072A09D14FF0D7
:1041D0005023D3F80024D20744BF6FF00102C3F884
:1041E0000024FFF789FF18B16522334BC3F80C2771
:1041F0004FF47F03D3F83021D3F83431072A16D196
:10420000314BD3F82034002B11DA4FF05023032226
:10421000C3F8182501229A60D3F80421002AFBD0A4
:104220000022C3F804210122DA60C3F818254FF4F4
:104230007F03D3F83021D3F83431072A23D1023B4E
:10424000032B02D8214AD35CEBB17E221A4B1B49C7
:10425000C3F80C27C3F83C297F231D4AC2F8183144
:104260000023C1F8043EC1F8083E01F54821C1F819
:104270001031C2F82431C2F82C3102F5FF1202F5D8
:104280008052C2F8A032134AD2F88C3043F4406313
:10429000C2F88C30104A114B1168C3F84415D2692A
:1042A000C3F84C2508BD2922034BC3F80C27032271
:1042B000C3F83C2757E700BF004000500090035070
:1042C0004400EFBE81900000002003507D9000006C
:1042D0000020005000ED00E00080FF000060005072
:1042E00070B501250268B2FA82F3C3F11F03DBB295
:1042F00005FA03F422EA0404D0E8EF6F964204D1F1
:10430000C0E8EC4FBCF1000FF6D1EBD101480B70C7
:1043100070BD00BF0000AD0B10B50368CB40DB07DC
:1043200010D401238B40026843EA0201D0E8EF4F2A
:10433000944204D1C0E8EC1FBCF1000FF6D1F2D1D9
:10434000014810BD0148FCE70000AD0B0400AD0BB7
:10435000054B1A792AB95A71012218601A7103485B
:1043600070470348704700BF400F00200000AD0BAE
:104370000C00AD0B4FF0502310B5D3F8002152B113
:104380000020C3F80001D3F800210122C3F808235C
:10439000284B1B6898474FF05023D3F804215AB19B
:1043A0000022C3F80421D3F804210222C3F8082311
:1043B000204B01201B6898474FF05023D3F81C2155
:1043C00082B1D3F8042312060CD50022C3F81C21B5
:1043D000D3F81C118021C3F80813164B03205A711F
:1043E0001B6898474FF05023D3F8202162B1002278
:1043F000C3F82021D3F820214FF48072C3F808239A
:104400000C4B04201B6898474FF05023D3F824210D
:1044100072B10022C3F82421D3F824214FF4007292
:10442000C3F80823034B0520BDE810401B6818475C
:1044300010BD00BF400F002001460148FFF750BFEC
:1044400040000020036803F01F020260034A044892
:104450005B09012B18BF1046704700BF0025845030
:1044600000288450034B083033F81000C0F340108C
:10447000704700BF4400002070B50D4C00F10803E8
:1044800034F813300546DA050E4607D5C3F3432347
:1044900004EBC302526854F833309847A3682BB139
:1044A00031462846E268BDE87040184770BD00BF3D
:1044B0004400002010B4124A083032F81030D905F8
:1044C0001BD5C3F3432123F4F85322F81030002006
:1044D00002F10E0434F8023F13F4807F03D0C3F3DB
:1044E0004323994209D001303028F3D1002342F808
:1044F0003130044810BCFFF70FBF10BC704700BF3D
:1045000044000020B800002038B50246FFF7AAFF9B
:104510000B4C02F1080560B1002134F815305B0B3B
:104520009B0003F1A04303F55043C3F81015C3F8F3
:1045300010151046FFF7BEFF002324F8153038BDD4
:10454000440000202DE9FF41044690461D4601B37A
:104550004F4E00F1080736F817309B0702D5FFF7DA
:1045600081FF28BB00232046CDE900338DF80E30B3
:104570008DF80F300DF10F020B460DF10E0103F017
:104580006AFD36F8173023F0020343F0010326F8E2
:104590001730B8F1000F2DD03D4E04F1080736F862
:1045A000171098F800008A07D8F8043002D5CBB16C
:1045B000384821E021F02001C904C90C26F8171061
:1045C00083B10328F4D8D8F8043093F800C06246C9
:1045D000920002F1A04202F5504280B9C2F81005E3
:1045E000C2F8100536F8173023F01C0343EA8003A5
:1045F00026F817301DBB284804B0BDE8F081D2F87A
:10460000103541EA4C3123F00303C2F81035D2F8DB
:10461000103541F0200123F44F3323F44073C2F8E6
:1046200010352302D2F810E503F47C5343EA00432B
:1046300043EA0E03C2F8103526F81710D2E72046D9
:10464000D5E90067FFF736FF002ED4D0104DD5E92D
:104650000023964201D19F4218D010480DF10F015E
:10466000FFF73EFE0C4B9842C6D19DF80F2005EB9C
:10467000C20308345F6035F8143045F8326043EA0D
:10468000422343F4807325F81430B4E70022EEE7A8
:10469000440000200400AD0B0000AD0BB80000206A
:1046A000F0B50446154685B019B3344E00F108073D
:1046B00036F81720930703D4FFF7D4FE00285AD109
:1046C00012F01C0F02D04B78012B54D001238DF82F
:1046D0000F3000234A1CCDE9001320468B1C0DF13E
:1046E0000F0103F0B8FC36F8173043F0030326F847
:1046F000173015B9224805B0F0BD204E04F1080767
:1047000036F81700830736D595F800C000236146B8
:1047100020F02000890001F1A041C00401F55041C2
:10472000C00CC1F8103526F81700C1F810356A78AA
:10473000002ADFD0D1F81035AD7823F4991323F493
:10474000F853C1F81035D1F810E5230203F47C5377
:10475000120402F4403243EA0E0313432A0502F422
:10476000801240EA4C30134340F02000C1F810356D
:1047700026F81700BEE70348BDE700BF440000204D
:104780000000AD0B0400AD0B014BC3E90201704703
:104790004400002008B50246FFF764FE38B1054B1F
:1047A000083233F8123004485B0B0B7008BD034825
:1047B000FCE700BF440000200000AD0B0400AD0B7F
:1047C00038B50F4C94F87850BDB96022294604F1F1
:1047D000100001F073FC0D20FDF76AFA094B0A483E
:1047E000C3F87C51D3F87C214FF00042C3F8042376
:1047F000012384F87830636738BD0448FCE700BFC4
:104800004400002000D000500000AD0B0500AD0BAF
:10481000034B93F87800003818BF0120704700BFA1
:104820004400002001460148FFF776BDB400002097
:1048300001460148FFF754BDB400002037B50446D7
:10484000FFF710FE1E4B04F1080233F81230E8B1F6
:1048500013F002051AD15B0B9A0002F1A04000F59B
:10486000514002F1A042056002F550420068D2F8C2
:10487000100540F00100C2F8100529B1012202FA2A
:1048800003F3104AC2F8043303B030BDC3F382030C
:10489000042B11D0052B11D001A80194FFF7D2FDF4
:1048A000019B0169D94001F001010231204603B0AA
:1048B000BDE8304003F018BC0321F7E70221F5E71B
:1048C0004400002000D0005008B50246FFF7CAFDA2
:1048D000C0B10F4B02F1080133F81130990711D420
:1048E00001225B0B9A400B499B0003F1A043C1F8E6
:1048F000082303F55043D3F8102522F00302C3F830
:10490000102508BD0021BDE80840104603F0ECBBAF
:104910004400002000D0005013B5104B00F10802F5
:1049200033F812300446DB0716D5FFF7CDFF2046DB
:10493000FFF7EAFD01A80194FFF784FD019B00EB5E
:104940008300D0F8003203F0E04343F00203C0F8E4
:104950000032034802B010BD0248FBE744000020CB
:104960000000AD0B0400AD0B2DE9F04F0026012235
:104970003446634B6348644987B01D6835B1D0F84D
:10498000045315421EBF1C601D68164304338B423E
:104990004FEA4202F1D1DFF86CA1DAF87C31002B4A
:1049A00000F09180DFF86481D8F820300493C8F8D3
:1049B0002030574B1A6A05921A624FF000090DF128
:1049C000100B4FEA4913009348E094FAA4F4B4FAA8
:1049D00084F4009B4F4A1C4404F1080332F813701E
:1049E0000123E00804F0070203FA02F21BF800308A
:1049F000039423EA02030BF8003003A8FFF722FD1B
:104A0000039BB908803350F82330C7F382054A0767
:104A10002F46C3F301432BD520463946DDB2FFF7BD
:104A20002BFD03A80394FFF70DFD039B803350F883
:104A30002330C3F301439D4207D10021204603F0F8
:104A400053FB2946204603F04FFB03A80394FFF7CE
:104A5000F9FC0122039B02FA03F303625BF829408D
:104A6000002CB2D1B9F1000F1DD14FF00109A8E718
:104A7000022B0CD10321204603F036FB05F0050381
:104A8000012BE2D139462046FFF7F6FCDDE7022193
:104A90002046019303F028FB032DF3D0019B032B49
:104AA000D3D1022DEDE7CAF87C41DAF87C31D8F891
:104AB000203017490493C8F820300A6A134305923E
:104AC0000A627FF47AAF012416B907B0BDE8F08F0F
:104AD00096FAA6F3B3FA83F304FA03F29B0003F108
:104AE000A04303F55043D3F81005D3F81015C0F3D5
:104AF0000520C1F3014126EA0206FFF7BDFCE3E70A
:104B000000D1005000D0005020D10050002584502A
:104B100000288450440000200022034BC3F8842561
:104B2000C3F80425704700BF00900350044AD2F830
:104B30000034DB07FBD50160BFF35F8F704700BF18
:104B40000090035008B5C0F30B0383B90222094B50
:104B5000C3F88425C3F804254FF0FF320260D3F870
:104B60000024D207FBD5FFF7D7FF034808BD034851
:104B7000FCE700BF009003500000AD0B0A00AD0B36
:104B8000012208B5054BC3F88425C3F80425FFF7B7
:104B9000CDFFBDE80840FFF7BFBF00BF0090035046
:104BA00070B500F06044B4F1005F68D1840766D14D
:104BB000354D95F83040012C01D09C4261D12C68D4
:104BC00004BB022B314B0BBFC3F81025C3F80425DF
:104BD000C3F81405C3F808050BBFC3F81815C3F8CC
:104BE0000C15082204220021C3F8001102F1A04391
:104BF000012203F52C331A60244AD2F80031002B2D
:104C0000FBD00DE0AE68214C66B1022BE860696113
:104C1000EA612DD1C4F81025C4F81405C4F818159C
:104C20001B4870BD022B85F830302961AA61A8604D
:104C30000CBFC4F81025C4F804254FF000020BBFC8
:104C4000C4F81405C4F80805C4F81815C4F80C1500
:104C500008BF08230D4918BF0423C1F80021012211
:104C600003F1A04303F52C33C1F804231A60D7E7FE
:104C7000C4F80425C4F80805C4F80C15D0E70548A5
:104C8000CFE70548CDE700BF480F002000B0025035
:104C90000000AD0B0A00AD0B0B00AD0B38B54CF2AC
:104CA0005034064DD5F8003133B90A2003F09FF88F
:104CB000013CF7D1024838BD0248FCE700B0025081
:104CC0000700AD0B0000AD0B084B9A685A621A69D9
:104CD0009A629A69DA62DA689A6032B15A691A613C
:104CE000DA699A610022DA6070477047480F002045
:104CF00010B50A4A0A4C00F01F034009012818BFEA
:104D0000224602EB8302D2F8003203F0E04343EA8A
:104D1000012343F00203C2F8003210BD0028845082
:104D20000025845010B50E4B0238D3F83C26D3F83A
:104D30003836072813D8DFE800F0110F0D0B0A08EA
:104D40000604100EC871100C8871100A48710A719F
:104D50001A0ECA701A0C8A701A0A4A700B7010BDAB
:104D600000B00250023807281FD8DFE800F02927DA
:104D7000251123211F04CB791B068A7943EA0243BC
:104D80004A7943EA02230A7913430E4AC2F83C36B1
:104D9000CB781B068A7843EA02434A7843EA022327
:104DA0000A781343074AC2F8383670470023E4E70D
:104DB0000023E5E70023E6E70023EBE70023ECE729
:104DC0000023EDE700B002502DE9F0416D4D04469F
:104DD00095F830300E461746002B40F0CE80C27C4E
:104DE00012B1037D002B6CD12079FF2800F0C88020
:104DF0006379FF2B00F0C480A379FF2B00F0C08003
:104E0000E179FF2900F0BC806368DFF87CC123F002
:104E10007F43634540F0B4800E2940F0B180237A8F
:104E2000FF2B02D00F2B40F0AB80637AFF2B02D018
:104E3000102B40F0A580B2B90321FFF759FF60792C
:104E4000FFF756FFA079FFF753FFE079FFF750FF18
:104E5000207AFF2801D0FFF74BFF607AFF2802D0AD
:104E60000321FFF745FF237D5BBB2379FF2B14BF95
:104E70001A464FF0FF32454BC3F824256279FF2ACA
:104E800008BF4FF0FF32C3F82825A279FF2A08BFD8
:104E90004FF0FF32C3F83025E279FF2A08BF4FF008
:104EA000FF32C3F83425227AFF2A08BF4FF0FF32C1
:104EB000C3F83825627AFF2A08BF4FF0FF32C3F8E3
:104EC0003C2501230022DFF8C480C8F80833C8F865
:104ED0000021C8F80030FFF7E1FE2D4B98424DD07D
:104EE0002368C8F84035237BE17AA27A9B0143EA24
:104EF000C1031343627B43EAC213C8F84435627CA2
:104F0000D8F84435A2BB43F440332049C1F84435B6
:104F10004FF4C063C1F84036D1F80026A37B22F0DD
:104F20007F4222F0FF021343E27B43EA0263227CCA
:104F300043EA4263627C43EA0273C1F80036E37CD1
:104F4000C5E9006785F8313016B12B20FCF7B0FEBB
:104F500000210122C5E902110C4B85F83020C3F86D
:104F60000025C3F800111A60BDE8F041FFF796BEB6
:104F700023F4003343F48033C7E70648BDE8F081EB
:104F80000548FBE7480F002011120D0000B0025049
:104F90000700AD0B0500AD0B0400AD0B2DE9F04192
:104FA00015461F4A044692F83020012A35D111B126
:104FB0004078FFF7D7FE012300271A4EDFF86880FC
:104FC000C6F80833C6F800713360FFF767FE404546
:104FD00002D11548BDE8F081C6F80071A378627867
:104FE0001B0343EA022322781343E27843EA423365
:104FF000227943EA8233627943EAC233C6F834360F
:10500000FFF74CFE4045E4D0C6F800711DB12946BB
:105010006078FFF787FE0548DCE70548DAE700BF60
:10502000480F002000B002500700AD0B0000AD0B90
:105030000B00AD0B1FB500230C4A02A802920DF124
:10504000070211468DF80730ADF80C30FFF7A6FFC8
:10505000074B984206D19DF8073013F0010F054B1E
:1050600018BF184605B05DF804FB00BF050200013B
:105070000000AD0B0B00AD0B2DE9F8432B20FCF726
:1050800025FE214B214ED3F8342602F44032B2F5EE
:10509000803F04BF1E4AC3F834260122C3F8082308
:1050A0001A610022C3F80025C3F8002196F83120C8
:1050B00022BBD3F82405D3F82895C0B2D3F83085A5
:1050C000D3F83475D3F83855D3F83C4503F024F8B9
:1050D0005FFA89F003F020F85FFA88F003F01CF81B
:1050E000F8B203F019F8E8B2FF28E4B201D003F0F7
:1050F00013F8FF2C02D0204603F00EF8002386F8A8
:105100003030BDE8F88300BF00B00250480F0020E7
:10511000000103008B0721D1124A13681BB192F8DA
:105120003030012B1CD1042382F830300E4BC3F8F1
:105130001C150021C3F82005C3F800110121D96016
:10514000106840B9D3F800110029FBD0012382F880
:10515000303006487047C3F80413FAE70448704734
:1051600004487047480F002000B002500000AD0B0B
:105170000A00AD0B0B00AD0B10B5174BD3F8002197
:10518000E2B10022154CC3F8002194F83020032A24
:1051900015D0042A15D0022A04D1012384F8203026
:1051A000FFF792FDA36813B9012384F83030D4E9E6
:1051B000003100209847002384F8203010BD0223DE
:1051C000ECE7032284F82020D3F81C256262D3F890
:1051D000203584F82830E5E700B00250480F002061
:1051E000032310B5134C144A23616361134BA2616E
:1051F000E3614FF4806323620023A3626362E3628E
:1052000022660F4A0F4962661022E01DA2662367DC
:10521000E366636700F00FFFBFF35F8F0A49204624
:1052200000F009FFBFF35F8F2023A371BFF35F8FEF
:1052300010BD00BF7C0F0020B39000005629002055
:1052400046290020BC900000C0900000104B70B5B3
:1052500053F82040013053F82060A64200D870BDBA
:10526000D4E900358DB12846984738B10028B8BF39
:105270004042FF28A8BFFF20EB681870EA68537807
:1052800043F0010353700834E7E79847FBE700BF9A
:10529000AC880000012208B5084B03201A70FFF704
:1052A000D5FF00F01FF90420FFF7D0FFFBF7BAF895
:1052B000034A137B23F00103137308BD562D00200E
:1052C0005801002008B50348034A0021121A02F0D1
:1052D00053FF08BD38010020582D002008B50020DC
:1052E000FFF7B4FF184B03F5006282F3088883F3DD
:1052F0000A880025E023154C84F82230E5772576CE
:105300006576A57684F82050636A43F4E0236362EF
:1053100084F82350FCF7A2FEFCF7AAFC4FF0FF3301
:10532000A362E362FDF722F8FCF734FF02F008FF06
:105330000120FFF78BFF0220FFF788FF2B462A464C
:1053400029460348FCF72AFD582D002000ED00E017
:105350009552000008B50648064A0749121A02F09D
:105360000DFFBDE80840054A0549064802F006BFA2
:105370000000002034010020FC900000000000002C
:10538000FC90000000000020034B1B680BB9FEF7E7
:105390000FBA0020704700BF2410002010B50E4B3C
:1053A0001C689C4204D1FFF7EFFF6FF0004010BD76
:1053B000FFF7EAFF002CF8D0D4E904321B1A62EBA5
:1053C000E072B3F1004F72F10001EEDA002AACBFD7
:1053D00018460020EBE700BFC000002030B570B1D8
:1053E0000B4B5B6898420AD0036843B1D3E90421B0
:1053F000D0E90445121941EB0501C3E90421D0E9C4
:10540000003213605A600023C0E9003330BD00BF92
:10541000C00000202DE9F84F4FF02003EFF3118C6E
:1054200083F31288BFF36F8FDFF8ACA0DFF8AC9086
:105430000024C9F80000DAF800000025504508BF34
:105440000020274FE046D7E90021D9F8003080B38B
:10545000D0E9046C4FEAE37EB3427EEB0C0B05DA35
:10546000F61A6CEB0E04C0E9046422E0B21841EBBA
:10547000E671C0E90445C7E90021FFF7AFFF88F3F3
:105480001188BFF36F8F836898474FF02003EFF3C5
:10549000118883F31288BFF36F8FD9F80030DAF8E0
:1054A00000009B1B5045C446C9F80030CAD1D7E95B
:1054B000002100249A1841EBE373C7E90023C9F8DF
:1054C0000040FFF76BFF2146FEF740F988F3118893
:1054D000BFF36F8FBDE8F88FC000002024100020BC
:1054E000D8010020014800F007BC00BFCA900000AE
:1054F00010B50A4C23681BB101232360002010BDA6
:1055000000F058F80028F7D00138072803D8044BDA
:1055100053F8200010BD034810BD00BF2810002024
:10552000C4880000FE8FFFFFBFF34F8F0549064B75
:10553000CA6802F4E0621343CB60BFF34F8F00BF31
:10554000FDE700BF00ED00E00400FA0530B44FF0C5
:10555000FE3200250B4B0C4C0C494968C3F8002463
:10556000C3F80424C3F80824C3F80C24C3F8102497
:10557000C3F81424C3F81824C3F81C24C4F8005535
:1055800030BC08470050845000408450C8000020C0
:10559000024BD0E90012C3E900127047C800002096
:1055A00038B131B1002201440346013088421A70FB
:1055B000FAD1704708B500F011F830B900F010F8D2
:1055C00038B9054AC2F80C0A08BD00F037F80320C4
:1055D00008BD042008BD00BF005084500020704763
:1055E00010B5114800F048F800B110BD0F4800F0A8
:1055F00043F80028F9D10E4C204600F03DF8002871
:10560000F3D10C4B0C481C6000F036F80146002822
:10561000EBD100F02DF8044608B1204610BD00F093
:105620003FF82046FAE700BFE0000020DC00002041
:10563000D8000020D0000020D400002008B5084881
:1056400000F024F8074800F021F8074800F01EF8A1
:10565000064800F01BF8BDE8084000F00BB800BF9A
:10566000E0000020DC000020D8000020D400002052
:1056700000207047704700BF08B5034B02681B68E5
:1056800010689847002008BDF800002008B5034BBB
:1056900002685B6810689847002008BDF800002089
:1056A00070B5094C094D2069AB68984718B1084B93
:1056B00008485B6898470021074AEB681160206939
:1056C000BDE87040184700BFE4000020F80000204B
:1056D000C8000020E48800002C10002010B504460B
:1056E00050B1636813F0685F05D0064A934202D058
:1056F00000236260236010BD034B04485B68984739
:10570000EFE700BF2C5F5CA9C800002004890000FF
:10571000C8B143680D4A934213D013F0685F0ED0AE
:10572000012350E8002F194640E8001C9CF0000FB0
:10573000F7D1012AF5D0BFF35F8F002070470448EE
:105740007047044870476FF4E04070472C5F5CA9D5
:10575000E98FFFFFEA8FFFFF034680B142680949E6
:105760008A420AD012F0685F05D0BFF35F8F002233
:1057700010461A60704704487047044870476FF439
:10578000E04070472C5F5CA9E98FFFFFEA8FFFFFC5
:1057900010B5044620B10023034A2360626010BDA7
:1057A0000248FFF7D3FEF6E73A00003A2C890000E2
:1057B00029B101290CBF05206FF0150070470220A8
:1057C00070470020704730B5836804468B42154609
:1057D00085B00ED96368C068194401AA00F010FEB4
:1057E00028B96268019B9B1A2B60029B6B6005B015
:1057F00030BD6FF02100FAE72DE9F7430E4617465A
:105800009946044628B94FF0FF38404603B0BDE83A
:10581000F0830029F7D0002AF5D0CB680D893846EF
:105820001D44042329460DEB030200F05AFB804679
:105830000028E8D146F60812BDF804107389914299
:1058400025D1BDF806109942DDD1042338460DEB71
:105850000302294400F045FB0028D4D146F6071383
:10586000BDF804209A42CED1C4E900679DF82830E3
:10587000A4F80890A3727389BDF806202B44E36056
:10588000738913442B44043563612561BDE7002B04
:10589000E4D0B8E72DE9F3410E4617461D4604460D
:1058A00020B94FF0FF3002B0BDE8F0810368002B53
:1058B000F7D04368002BF4D04FF6FF78D4E90423E7
:1058C0009A4216D223685B8923B1E368934204BFEE
:1058D000043323610423216960680DEB030200F0A7
:1058E00000FB0028DDD1A37A2BB1D4E903329A4220
:1058F00001D30120D7E72389BDF80610434501F104
:10590000040203D0BDF804C09C450BD115B1BDF80D
:1059100004302B80236904333360398023691344B6
:105920002361C0E7236913442361C7E700F094BBF8
:105930004FF4C0735843303070470B78022B06D0B9
:10594000052B14BF4FF0FF304FF4C07070474FF479
:10595000C070704710B5044600F001FB4FF4C072F0
:10596000A368303B02FB103010BD70B50D460446F5
:1059700000F05DFE2A46A0F1080104232046BDE8A0
:10598000704000F0AEBA81680122183921F0070199
:10599000083900F0BBBE13B50446019100F047FE84
:1059A0000423A0F108010DEB0302204600F082FE63
:1059B00002B010BD70B513460E46154600210246D2
:1059C0000446FBF743FA50B92B460121204604F167
:1059D0002C02FBF73BFA10B1002E08BF002070BD6F
:1059E00073B5044600200D461646FFF7E1FE6946F2
:1059F000C0B2FCF7DFF830BB2C2303FB0544E3689F
:105A0000258900981D44042329460DEB030200F06C
:105A100068FAC0B946F60813BDF8042064899A42B2
:105A2000009815D1BDF806309C420CD104236119B1
:105A30000DEB030200F055FA28B946F60713BDF83E
:105A400004209A4207D0009800F04AFA02B070BDD4
:105A5000002CF2D0F7E7BDF806102144294431604C
:105A6000F1E737B580250446426A01A90220019575
:105A7000FCF7C8F858B9019B0520226DA36201A963
:105A80000195FCF7BFF8054628B1092500E001257E
:105A9000284603B030BD019B206A636500F05FFAC1
:105AA000E065F5E70123036003F101234360002370
:105AB000C0E9023370474379012B07D10368012BFA
:105AC00004D10079431E5842584170470020704766
:105AD0007FB506460D46022001A9FCF76BF838BBDE
